{
    "_format": "hh-sol-artifact-1",
    "contractName": "MyEpicNFTFinal",
    "sourceName": "contracts/MyEpicNFTFinal.sol",
    "abi": [
        {
            "inputs": [],
            "stateMutability": "nonpayable",
            "type": "constructor"
        },
        {
            "anonymous": false,
            "inputs": [
                {
                    "indexed": true,
                    "internalType": "address",
                    "name": "owner",
                    "type": "address"
                },
                {
                    "indexed": true,
                    "internalType": "address",
                    "name": "approved",
                    "type": "address"
                },
                {
                    "indexed": true,
                    "internalType": "uint256",
                    "name": "tokenId",
                    "type": "uint256"
                }
            ],
            "name": "Approval",
            "type": "event"
        },
        {
            "anonymous": false,
            "inputs": [
                {
                    "indexed": true,
                    "internalType": "address",
                    "name": "owner",
                    "type": "address"
                },
                {
                    "indexed": true,
                    "internalType": "address",
                    "name": "operator",
                    "type": "address"
                },
                {
                    "indexed": false,
                    "internalType": "bool",
                    "name": "approved",
                    "type": "bool"
                }
            ],
            "name": "ApprovalForAll",
            "type": "event"
        },
        {
            "anonymous": false,
            "inputs": [
                {
                    "indexed": false,
                    "internalType": "address",
                    "name": "sender",
                    "type": "address"
                },
                {
                    "indexed": false,
                    "internalType": "uint256",
                    "name": "tokenId",
                    "type": "uint256"
                }
            ],
            "name": "NewEpicNFTMinted",
            "type": "event"
        },
        {
            "anonymous": false,
            "inputs": [
                {
                    "indexed": true,
                    "internalType": "address",
                    "name": "from",
                    "type": "address"
                },
                {
                    "indexed": true,
                    "internalType": "address",
                    "name": "to",
                    "type": "address"
                },
                {
                    "indexed": true,
                    "internalType": "uint256",
                    "name": "tokenId",
                    "type": "uint256"
                }
            ],
            "name": "Transfer",
            "type": "event"
        },
        {
            "inputs": [
                {
                    "internalType": "address",
                    "name": "to",
                    "type": "address"
                },
                {
                    "internalType": "uint256",
                    "name": "tokenId",
                    "type": "uint256"
                }
            ],
            "name": "approve",
            "outputs": [],
            "stateMutability": "nonpayable",
            "type": "function"
        },
        {
            "inputs": [
                {
                    "internalType": "address",
                    "name": "owner",
                    "type": "address"
                }
            ],
            "name": "balanceOf",
            "outputs": [
                {
                    "internalType": "uint256",
                    "name": "",
                    "type": "uint256"
                }
            ],
            "stateMutability": "view",
            "type": "function"
        },
        {
            "inputs": [
                {
                    "internalType": "uint256",
                    "name": "tokenId",
                    "type": "uint256"
                }
            ],
            "name": "getApproved",
            "outputs": [
                {
                    "internalType": "address",
                    "name": "",
                    "type": "address"
                }
            ],
            "stateMutability": "view",
            "type": "function"
        },
        {
            "inputs": [
                {
                    "internalType": "address",
                    "name": "owner",
                    "type": "address"
                },
                {
                    "internalType": "address",
                    "name": "operator",
                    "type": "address"
                }
            ],
            "name": "isApprovedForAll",
            "outputs": [
                {
                    "internalType": "bool",
                    "name": "",
                    "type": "bool"
                }
            ],
            "stateMutability": "view",
            "type": "function"
        },
        {
            "inputs": [],
            "name": "makeAnEpicNFTFinal",
            "outputs": [],
            "stateMutability": "nonpayable",
            "type": "function"
        },
        {
            "inputs": [],
            "name": "name",
            "outputs": [
                {
                    "internalType": "string",
                    "name": "",
                    "type": "string"
                }
            ],
            "stateMutability": "view",
            "type": "function"
        },
        {
            "inputs": [
                {
                    "internalType": "uint256",
                    "name": "tokenId",
                    "type": "uint256"
                }
            ],
            "name": "ownerOf",
            "outputs": [
                {
                    "internalType": "address",
                    "name": "",
                    "type": "address"
                }
            ],
            "stateMutability": "view",
            "type": "function"
        },
        {
            "inputs": [
                {
                    "internalType": "uint256",
                    "name": "tokenId",
                    "type": "uint256"
                }
            ],
            "name": "pickRandomColor",
            "outputs": [
                {
                    "internalType": "string",
                    "name": "",
                    "type": "string"
                }
            ],
            "stateMutability": "view",
            "type": "function"
        },
        {
            "inputs": [
                {
                    "internalType": "uint256",
                    "name": "tokenId",
                    "type": "uint256"
                }
            ],
            "name": "pickRandomFirstWord",
            "outputs": [
                {
                    "internalType": "string",
                    "name": "",
                    "type": "string"
                }
            ],
            "stateMutability": "view",
            "type": "function"
        },
        {
            "inputs": [
                {
                    "internalType": "uint256",
                    "name": "tokenId",
                    "type": "uint256"
                }
            ],
            "name": "pickRandomSecondWord",
            "outputs": [
                {
                    "internalType": "string",
                    "name": "",
                    "type": "string"
                }
            ],
            "stateMutability": "view",
            "type": "function"
        },
        {
            "inputs": [
                {
                    "internalType": "uint256",
                    "name": "tokenId",
                    "type": "uint256"
                }
            ],
            "name": "pickRandomThirdWord",
            "outputs": [
                {
                    "internalType": "string",
                    "name": "",
                    "type": "string"
                }
            ],
            "stateMutability": "view",
            "type": "function"
        },
        {
            "inputs": [
                {
                    "internalType": "address",
                    "name": "from",
                    "type": "address"
                },
                {
                    "internalType": "address",
                    "name": "to",
                    "type": "address"
                },
                {
                    "internalType": "uint256",
                    "name": "tokenId",
                    "type": "uint256"
                }
            ],
            "name": "safeTransferFrom",
            "outputs": [],
            "stateMutability": "nonpayable",
            "type": "function"
        },
        {
            "inputs": [
                {
                    "internalType": "address",
                    "name": "from",
                    "type": "address"
                },
                {
                    "internalType": "address",
                    "name": "to",
                    "type": "address"
                },
                {
                    "internalType": "uint256",
                    "name": "tokenId",
                    "type": "uint256"
                },
                {
                    "internalType": "bytes",
                    "name": "_data",
                    "type": "bytes"
                }
            ],
            "name": "safeTransferFrom",
            "outputs": [],
            "stateMutability": "nonpayable",
            "type": "function"
        },
        {
            "inputs": [
                {
                    "internalType": "address",
                    "name": "operator",
                    "type": "address"
                },
                {
                    "internalType": "bool",
                    "name": "approved",
                    "type": "bool"
                }
            ],
            "name": "setApprovalForAll",
            "outputs": [],
            "stateMutability": "nonpayable",
            "type": "function"
        },
        {
            "inputs": [
                {
                    "internalType": "bytes4",
                    "name": "interfaceId",
                    "type": "bytes4"
                }
            ],
            "name": "supportsInterface",
            "outputs": [
                {
                    "internalType": "bool",
                    "name": "",
                    "type": "bool"
                }
            ],
            "stateMutability": "view",
            "type": "function"
        },
        {
            "inputs": [],
            "name": "symbol",
            "outputs": [
                {
                    "internalType": "string",
                    "name": "",
                    "type": "string"
                }
            ],
            "stateMutability": "view",
            "type": "function"
        },
        {
            "inputs": [
                {
                    "internalType": "uint256",
                    "name": "tokenId",
                    "type": "uint256"
                }
            ],
            "name": "tokenURI",
            "outputs": [
                {
                    "internalType": "string",
                    "name": "",
                    "type": "string"
                }
            ],
            "stateMutability": "view",
            "type": "function"
        },
        {
            "inputs": [
                {
                    "internalType": "address",
                    "name": "from",
                    "type": "address"
                },
                {
                    "internalType": "address",
                    "name": "to",
                    "type": "address"
                },
                {
                    "internalType": "uint256",
                    "name": "tokenId",
                    "type": "uint256"
                }
            ],
            "name": "transferFrom",
            "outputs": [],
            "stateMutability": "nonpayable",
            "type": "function"
        }
    ],
    "bytecode": "0x608060405260405180610100016040528060d38152602001620054d860d391396008908051906020019062000036929190620012ca565b50604051806080016040528060578152602001620055ab605791396009908051906020019062000068929190620012ca565b506040518061028001604052806040518060400160405280600581526020017f506172746500000000000000000000000000000000000000000000000000000081525081526020016040518060400160405280600881526020017f506572706574756f00000000000000000000000000000000000000000000000081525081526020016040518060400160405280600881526020017f4d656d6272616e6100000000000000000000000000000000000000000000000081525081526020016040518060400160405280600581526020017f506573746500000000000000000000000000000000000000000000000000000081525081526020016040518060400160405280600881526020017f47696d6e6173696100000000000000000000000000000000000000000000000081525081526020016040518060400160405280600481526020017f52656d6f0000000000000000000000000000000000000000000000000000000081525081526020016040518060400160405280600681526020017f42617272696c000000000000000000000000000000000000000000000000000081525081526020016040518060400160405280600781526020017f4c6579656e64610000000000000000000000000000000000000000000000000081525081526020016040518060400160405280600781526020017f4d6f736169636f0000000000000000000000000000000000000000000000000081525081526020016040518060400160405280600681526020017f48756d616e6f000000000000000000000000000000000000000000000000000081525081526020016040518060400160405280600781526020017f436572696c6c610000000000000000000000000000000000000000000000000081525081526020016040518060400160405280600481526020017f436572610000000000000000000000000000000000000000000000000000000081525081526020016040518060400160405280600881526020017f416c62657267756500000000000000000000000000000000000000000000000081525081526020016040518060400160405280600a81526020017f43616d70616e6172696f0000000000000000000000000000000000000000000081525081526020016040518060400160405280600481526020017f41726d610000000000000000000000000000000000000000000000000000000081525081526020016040518060400160405280600881526020017f56616c69656e746500000000000000000000000000000000000000000000000081525081526020016040518060400160405280600581526020017f4f6c69766100000000000000000000000000000000000000000000000000000081525081526020016040518060400160405280600481526020017f54617a610000000000000000000000000000000000000000000000000000000081525081526020016040518060400160405280600781526020017f426f74656c6c610000000000000000000000000000000000000000000000000081525081526020016040518060400160405280600781526020017f436f626172646500000000000000000000000000000000000000000000000000815250815250600a906014620005219291906200135b565b506040518061028001604052806040518060400160405280600581526020017f47616c6c6f00000000000000000000000000000000000000000000000000000081525081526020016040518060400160405280600881526020017f477565706172646f00000000000000000000000000000000000000000000000081525081526020016040518060400160405280600781526020017f4c6f6d6272697a0000000000000000000000000000000000000000000000000081525081526020016040518060400160405280600681526020017f50616c6f6d61000000000000000000000000000000000000000000000000000081525081526020016040518060400160405280600781526020017f506f6c696c6c610000000000000000000000000000000000000000000000000081525081526020016040518060400160405280600881526020017f4c616e676f73746100000000000000000000000000000000000000000000000081525081526020016040518060400160405280600881526020017f4d617269706f736100000000000000000000000000000000000000000000000081525081526020016040518060400160405280600681526020017f496775616e61000000000000000000000000000000000000000000000000000081525081526020016040518060400160405280600681526020017f4a6972616661000000000000000000000000000000000000000000000000000081525081526020016040518060400160405280600881526020017f4d6f73717569746f00000000000000000000000000000000000000000000000081525081526020016040518060400160405280600681526020017f50657269636f000000000000000000000000000000000000000000000000000081525081526020016040518060400160405280600581526020017f4572697a6f00000000000000000000000000000000000000000000000000000081525081526020016040518060400160405280600a81526020017f44726f6d65646172696f0000000000000000000000000000000000000000000081525081526020016040518060400160405280600481526020017f52616e610000000000000000000000000000000000000000000000000000000081525081526020016040518060400160405280600781526020017f48616d737465720000000000000000000000000000000000000000000000000081525081526020016040518060400160405280600781526020017f4d6170616368650000000000000000000000000000000000000000000000000081525081526020016040518060400160405280600581526020017f47616e736f00000000000000000000000000000000000000000000000000000081525081526020016040518060400160405280600981526020017f437563617261636861000000000000000000000000000000000000000000000081525081526020016040518060400160405280600581526020017f4f76656a6100000000000000000000000000000000000000000000000000000081525081526020016040518060400160405280600781526020017f436162616c6c6f00000000000000000000000000000000000000000000000000815250815250600b906014620009da9291906200135b565b506040518061028001604052806040518060400160405280600881526020017f43616d617265726100000000000000000000000000000000000000000000000081525081526020016040518060400160405280600881526020017f436f6e7461626c6500000000000000000000000000000000000000000000000081525081526020016040518060400160405280600881526020017f4772616e6a65726100000000000000000000000000000000000000000000000081525081526020016040518060400160405280600681526020017f50696c6f746f000000000000000000000000000000000000000000000000000081525081526020016040518060400160405280600781526020017f4361727465726f0000000000000000000000000000000000000000000000000081525081526020016040518060400160405280600781526020017f41626f676164610000000000000000000000000000000000000000000000000081525081526020016040518060400160405280600981526020017f4361726e6963657261000000000000000000000000000000000000000000000081525081526020016040518060400160405280600881526020017f50616e616465726100000000000000000000000000000000000000000000000081525081526020016040518060400160405280600a81526020017f417271756974656374610000000000000000000000000000000000000000000081525081526020016040518060400160405280600981526020017f50656c75717565726f000000000000000000000000000000000000000000000081525081526020016040518060400160405280600681526020017f43616a65726f000000000000000000000000000000000000000000000000000081525081526020016040518060400160405280600a81526020017f43617270696e746572610000000000000000000000000000000000000000000081525081526020016040518060400160405280600981526020017f466f6e74616e65726f000000000000000000000000000000000000000000000081525081526020016040518060400160405280600a81526020017f42617272656e6465726f0000000000000000000000000000000000000000000081525081526020016040518060400160405280600681526020017f446f63746f72000000000000000000000000000000000000000000000000000081525081526020016040518060400160405280600881526020017f43616d617265726f00000000000000000000000000000000000000000000000081525081526020016040518060400160405280600881526020017f436f63696e65726100000000000000000000000000000000000000000000000081525081526020016040518060400160405280600881526020017f50726f6665736f7200000000000000000000000000000000000000000000000081525081526020016040518060400160405280600a81526020017f536f636f7272697374610000000000000000000000000000000000000000000081525081526020016040518060400160405280600a81526020017f456d707265736172696f00000000000000000000000000000000000000000000815250815250600c90601462000e939291906200135b565b506040518061014001604052806040518060400160405280600581526020017f626c61636b00000000000000000000000000000000000000000000000000000081525081526020016040518060400160405280600581526020017f677265656e00000000000000000000000000000000000000000000000000000081525081526020016040518060400160405280600381526020017f726564000000000000000000000000000000000000000000000000000000000081525081526020016040518060400160405280600481526020017f626c75650000000000000000000000000000000000000000000000000000000081525081526020016040518060400160405280600581526020017f636f72616c00000000000000000000000000000000000000000000000000000081525081526020016040518060400160405280600881526020017f6461726b6772657900000000000000000000000000000000000000000000000081525081526020016040518060400160405280600a81526020017f6461726b76696f6c65740000000000000000000000000000000000000000000081525081526020016040518060400160405280600981526020017f66697265627269636b000000000000000000000000000000000000000000000081525081526020016040518060400160405280600881526020017f6465657070696e6b00000000000000000000000000000000000000000000000081525081526020016040518060400160405280600981526020017f6461726b6b68616b690000000000000000000000000000000000000000000000815250815250600d90600a620010fe929190620013c2565b503480156200110c57600080fd5b506040518060400160405280600981526020017f5371756172654e465400000000000000000000000000000000000000000000008152506040518060400160405280600681526020017f5351554152450000000000000000000000000000000000000000000000000000815250816000908051906020019062001191929190620012ca565b508060019080519060200190620011aa929190620012ca565b505050620011f86040518060400160405280601981526020017f46696e616c20636f6e7472616374202d204d696e744e46547300000000000000815250620011fe60201b6200132e1760201c565b620015e3565b6200129e81604051602401620012159190620014f7565b6040516020818303038152906040527f41304fac000000000000000000000000000000000000000000000000000000007bffffffffffffffffffffffffffffffffffffffffffffffffffffffff19166020820180517bffffffffffffffffffffffffffffffffffffffffffffffffffffffff8381831617835250505050620012a160201b60201c565b50565b60008151905060006a636f6e736f6c652e6c6f679050602083016000808483855afa5050505050565b828054620012d8906200156d565b90600052602060002090601f016020900481019282620012fc576000855562001348565b82601f106200131757805160ff191683800117855562001348565b8280016001018555821562001348579182015b82811115620013475782518255916020019190600101906200132a565b5b50905062001357919062001429565b5090565b828054828255906000526020600020908101928215620013af579160200282015b82811115620013ae5782518290805190602001906200139d929190620012ca565b50916020019190600101906200137c565b5b509050620013be919062001448565b5090565b82805482825590600052602060002090810192821562001416579160200282015b828111156200141557825182908051906020019062001404929190620012ca565b5091602001919060010190620013e3565b5b50905062001425919062001448565b5090565b5b80821115620014445760008160009055506001016200142a565b5090565b5b808211156200146c576000818162001462919062001470565b5060010162001449565b5090565b5080546200147e906200156d565b6000825580601f10620014925750620014b3565b601f016020900490600052602060002090810190620014b2919062001429565b5b50565b6000620014c3826200151b565b620014cf818562001526565b9350620014e181856020860162001537565b620014ec81620015d2565b840191505092915050565b60006020820190508181036000830152620015138184620014b6565b905092915050565b600081519050919050565b600082825260208201905092915050565b60005b83811015620015575780820151818401526020810190506200153a565b8381111562001567576000848401525b50505050565b600060028204905060018216806200158657607f821691505b602082108114156200159d576200159c620015a3565b5b50919050565b7f4e487b7100000000000000000000000000000000000000000000000000000000600052602260045260246000fd5b6000601f19601f8301169050919050565b613ee580620015f36000396000f3fe608060405234801561001057600080fd5b50600436106101165760003560e01c806370a08231116100a2578063b88d4fde11610071578063b88d4fde14610317578063c575757a14610333578063c87b56dd14610363578063e985e9c514610393578063f7c5168c146103c357610116565b806370a082311461027d57806395d89b41146102ad578063a22cb465146102cb578063b187301f146102e757610116565b806323b872dd116100e957806323b872dd146101b55780632de38d68146101d157806342842e0e14610201578063514dc8c61461021d5780636352211e1461024d57610116565b806301ffc9a71461011b57806306fdde031461014b578063081812fc14610169578063095ea7b314610199575b600080fd5b6101356004803603810190610130919061275a565b6103cd565b6040516101429190612fe4565b60405180910390f35b6101536104af565b6040516101609190612fff565b60405180910390f35b610183600480360381019061017e91906127ac565b610541565b6040516101909190612f54565b60405180910390f35b6101b360048036038101906101ae919061271e565b6105c6565b005b6101cf60048036038101906101ca9190612618565b6106de565b005b6101eb60048036038101906101e691906127ac565b61073e565b6040516101f89190612fff565b60405180910390f35b61021b60048036038101906102169190612618565b61085c565b005b610237600480360381019061023291906127ac565b61087c565b6040516102449190612fff565b60405180910390f35b610267600480360381019061026291906127ac565b61099a565b6040516102749190612f54565b60405180910390f35b610297600480360381019061029291906125b3565b610a4c565b6040516102a4919061325f565b60405180910390f35b6102b5610b04565b6040516102c29190612fff565b60405180910390f35b6102e560048036038101906102e091906126e2565b610b96565b005b61030160048036038101906102fc91906127ac565b610bac565b60405161030e9190612fff565b60405180910390f35b610331600480360381019061032c9190612667565b610d29565b005b61034d600480360381019061034891906127ac565b610d8b565b60405161035a9190612fff565b60405180910390f35b61037d600480360381019061037891906127ac565b610f08565b60405161038a9190612fff565b60405180910390f35b6103ad60048036038101906103a891906125dc565b61105a565b6040516103ba9190612fe4565b60405180910390f35b6103cb6110ee565b005b60007f80ac58cd000000000000000000000000000000000000000000000000000000007bffffffffffffffffffffffffffffffffffffffffffffffffffffffff1916827bffffffffffffffffffffffffffffffffffffffffffffffffffffffff1916148061049857507f5b5e139f000000000000000000000000000000000000000000000000000000007bffffffffffffffffffffffffffffffffffffffffffffffffffffffff1916827bffffffffffffffffffffffffffffffffffffffffffffffffffffffff1916145b806104a857506104a7826113c7565b5b9050919050565b6060600080546104be906134f3565b80601f01602080910402602001604051908101604052809291908181526020018280546104ea906134f3565b80156105375780601f1061050c57610100808354040283529160200191610537565b820191906000526020600020905b81548152906001019060200180831161051a57829003601f168201915b5050505050905090565b600061054c82611431565b61058b576040517f08c379a0000000000000000000000000000000000000000000000000000000008152600401610582906131df565b60405180910390fd5b6004600083815260200190815260200160002060009054906101000a900473ffffffffffffffffffffffffffffffffffffffff169050919050565b60006105d18261099a565b90508073ffffffffffffffffffffffffffffffffffffffff168373ffffffffffffffffffffffffffffffffffffffff161415610642576040517f08c379a00000000000000000000000000000000000000000000000000000000081526004016106399061321f565b60405180910390fd5b8073ffffffffffffffffffffffffffffffffffffffff1661066161149d565b73ffffffffffffffffffffffffffffffffffffffff161480610690575061068f8161068a61149d565b61105a565b5b6106cf576040517f08c379a00000000000000000000000000000000000000000000000000000000081526004016106c69061311f565b60405180910390fd5b6106d983836114a5565b505050565b6106ef6106e961149d565b8261155e565b61072e576040517f08c379a00000000000000000000000000000000000000000000000000000000081526004016107259061323f565b60405180910390fd5b61073983838361163c565b505050565b6060600061077261074e846118a3565b60405160200161075e9190612eee565b604051602081830303815290604052611a50565b9050600a8054905081610785919061359f565b9050600a81815481106107c1577f4e487b7100000000000000000000000000000000000000000000000000000000600052603260045260246000fd5b9060005260206000200180546107d6906134f3565b80601f0160208091040260200160405190810160405280929190818152602001828054610802906134f3565b801561084f5780601f106108245761010080835404028352916020019161084f565b820191906000526020600020905b81548152906001019060200180831161083257829003601f168201915b5050505050915050919050565b61087783838360405180602001604052806000815250610d29565b505050565b606060006108b061088c846118a3565b60405160200161089c9190612f32565b604051602081830303815290604052611a50565b9050600d80549050816108c3919061359f565b9050600d81815481106108ff577f4e487b7100000000000000000000000000000000000000000000000000000000600052603260045260246000fd5b906000526020600020018054610914906134f3565b80601f0160208091040260200160405190810160405280929190818152602001828054610940906134f3565b801561098d5780601f106109625761010080835404028352916020019161098d565b820191906000526020600020905b81548152906001019060200180831161097057829003601f168201915b5050505050915050919050565b6000806002600084815260200190815260200160002060009054906101000a900473ffffffffffffffffffffffffffffffffffffffff169050600073ffffffffffffffffffffffffffffffffffffffff168173ffffffffffffffffffffffffffffffffffffffff161415610a43576040517f08c379a0000000000000000000000000000000000000000000000000000000008152600401610a3a9061315f565b60405180910390fd5b80915050919050565b60008073ffffffffffffffffffffffffffffffffffffffff168273ffffffffffffffffffffffffffffffffffffffff161415610abd576040517f08c379a0000000000000000000000000000000000000000000000000000000008152600401610ab49061313f565b60405180910390fd5b600360008373ffffffffffffffffffffffffffffffffffffffff1673ffffffffffffffffffffffffffffffffffffffff168152602001908152602001600020549050919050565b606060018054610b13906134f3565b80601f0160208091040260200160405190810160405280929190818152602001828054610b3f906134f3565b8015610b8c5780601f10610b6157610100808354040283529160200191610b8c565b820191906000526020600020905b815481529060010190602001808311610b6f57829003601f168201915b5050505050905090565b610ba8610ba161149d565b8383611a83565b5050565b60606000610be0610bbc846118a3565b604051602001610bcc9190612e43565b604051602081830303815290604052611a50565b90506000600b8054905082610bf5919061359f565b9050610c27610c03856118a3565b604051602001610c139190612e87565b604051602081830303815290604052611a50565b91506000600b8054905083610c3c919061359f565b905080821015610c4e57809250610c52565b8192505b600b8381548110610c8c577f4e487b7100000000000000000000000000000000000000000000000000000000600052603260045260246000fd5b906000526020600020018054610ca1906134f3565b80601f0160208091040260200160405190810160405280929190818152602001828054610ccd906134f3565b8015610d1a5780601f10610cef57610100808354040283529160200191610d1a565b820191906000526020600020905b815481529060010190602001808311610cfd57829003601f168201915b50505050509350505050919050565b610d3a610d3461149d565b8361155e565b610d79576040517f08c379a0000000000000000000000000000000000000000000000000000000008152600401610d709061323f565b60405180910390fd5b610d8584848484611bf0565b50505050565b60606000610dbf610d9b846118a3565b604051602001610dab9190612e21565b604051602081830303815290604052611a50565b90506000600c8054905082610dd4919061359f565b9050610e06610de2856118a3565b604051602001610df29190612e65565b604051602081830303815290604052611a50565b91506000600c8054905083610e1b919061359f565b905080821015610e2d57809250610e31565b8192505b600c8381548110610e6b577f4e487b7100000000000000000000000000000000000000000000000000000000600052603260045260246000fd5b906000526020600020018054610e80906134f3565b80601f0160208091040260200160405190810160405280929190818152602001828054610eac906134f3565b8015610ef95780601f10610ece57610100808354040283529160200191610ef9565b820191906000526020600020905b815481529060010190602001808311610edc57829003601f168201915b50505050509350505050919050565b6060610f1382611431565b610f52576040517f08c379a0000000000000000000000000000000000000000000000000000000008152600401610f49906131bf565b60405180910390fd5b6000600660008481526020019081526020016000208054610f72906134f3565b80601f0160208091040260200160405190810160405280929190818152602001828054610f9e906134f3565b8015610feb5780601f10610fc057610100808354040283529160200191610feb565b820191906000526020600020905b815481529060010190602001808311610fce57829003601f168201915b505050505090506000610ffc611c4c565b9050600081511415611012578192505050611055565b60008251111561104757808260405160200161102f929190612d32565b60405160208183030381529060405292505050611055565b61105084611c63565b925050505b919050565b6000600560008473ffffffffffffffffffffffffffffffffffffffff1673ffffffffffffffffffffffffffffffffffffffff16815260200190815260200160002060008373ffffffffffffffffffffffffffffffffffffffff1673ffffffffffffffffffffffffffffffffffffffff16815260200190815260200160002060009054906101000a900460ff16905092915050565b60006110fa6007611d0a565b905060006111078261073e565b9050600061111483610bac565b9050600061112184610d8b565b9050600061112e8561087c565b9050600084848460405160200161114793929190612d56565b604051602081830303815290604052905060006008836009846040516020016111739493929190612db6565b604051602081830303815290604052905060008284604051602001611199929190612d87565b604051602081830303815290604052905060006111de826111b985611d18565b6040516020016111ca929190612ea9565b604051602081830303815290604052611d18565b90506000816040516020016111f39190612f10565b60405160208183030381529060405290506112426040518060400160405280601581526020017f0a2d2d2d2d2d2d2d2d2d2d2d2d2d2d2d2d2d2d2d2d000000000000000000000081525061132e565b61126a816040516020016112569190612dff565b60405160208183030381529060405261132e565b6112a86040518060400160405280601581526020017f2d2d2d2d2d2d2d2d2d2d2d2d2d2d2d2d2d2d2d2d0a000000000000000000000081525061132e565b6112b2338b611ed6565b6112bc8a82611ef4565b6112c66007611f68565b6112e9604051806060016040528060258152602001613e4b602591398b33611f7e565b7febb98688741ffa4c7589bf325de30cf7becb63de567842e1ccdb6cb949fdc82c338b60405161131a929190612fbb565b60405180910390a150505050505050505050565b6113c4816040516024016113429190612fff565b6040516020818303038152906040527f41304fac000000000000000000000000000000000000000000000000000000007bffffffffffffffffffffffffffffffffffffffffffffffffffffffff19166020820180517bffffffffffffffffffffffffffffffffffffffffffffffffffffffff838183161783525050505061201d565b50565b60007f01ffc9a7000000000000000000000000000000000000000000000000000000007bffffffffffffffffffffffffffffffffffffffffffffffffffffffff1916827bffffffffffffffffffffffffffffffffffffffffffffffffffffffff1916149050919050565b60008073ffffffffffffffffffffffffffffffffffffffff166002600084815260200190815260200160002060009054906101000a900473ffffffffffffffffffffffffffffffffffffffff1673ffffffffffffffffffffffffffffffffffffffff1614159050919050565b600033905090565b816004600083815260200190815260200160002060006101000a81548173ffffffffffffffffffffffffffffffffffffffff021916908373ffffffffffffffffffffffffffffffffffffffff160217905550808273ffffffffffffffffffffffffffffffffffffffff166115188361099a565b73ffffffffffffffffffffffffffffffffffffffff167f8c5be1e5ebec7d5bd14f71427d1e84f3dd0314c0f7b2291e5b200ac8c7c3b92560405160405180910390a45050565b600061156982611431565b6115a8576040517f08c379a000000000000000000000000000000000000000000000000000000000815260040161159f906130ff565b60405180910390fd5b60006115b38361099a565b90508073ffffffffffffffffffffffffffffffffffffffff168473ffffffffffffffffffffffffffffffffffffffff16148061162257508373ffffffffffffffffffffffffffffffffffffffff1661160a84610541565b73ffffffffffffffffffffffffffffffffffffffff16145b806116335750611632818561105a565b5b91505092915050565b8273ffffffffffffffffffffffffffffffffffffffff1661165c8261099a565b73ffffffffffffffffffffffffffffffffffffffff16146116b2576040517f08c379a00000000000000000000000000000000000000000000000000000000081526004016116a99061307f565b60405180910390fd5b600073ffffffffffffffffffffffffffffffffffffffff168273ffffffffffffffffffffffffffffffffffffffff161415611722576040517f08c379a0000000000000000000000000000000000000000000000000000000008152600401611719906130bf565b60405180910390fd5b61172d838383612046565b6117386000826114a5565b6001600360008573ffffffffffffffffffffffffffffffffffffffff1673ffffffffffffffffffffffffffffffffffffffff16815260200190815260200160002060008282546117889190613409565b925050819055506001600360008473ffffffffffffffffffffffffffffffffffffffff1673ffffffffffffffffffffffffffffffffffffffff16815260200190815260200160002060008282546117df9190613328565b92505081905550816002600083815260200190815260200160002060006101000a81548173ffffffffffffffffffffffffffffffffffffffff021916908373ffffffffffffffffffffffffffffffffffffffff160217905550808273ffffffffffffffffffffffffffffffffffffffff168473ffffffffffffffffffffffffffffffffffffffff167fddf252ad1be2c89b69c2b068fc378daa952ba7f163c4a11628f55a4df523b3ef60405160405180910390a461189e83838361204b565b505050565b606060008214156118eb576040518060400160405280600181526020017f30000000000000000000000000000000000000000000000000000000000000008152509050611a4b565b600082905060005b6000821461191d57808061190690613556565b915050600a82611916919061337e565b91506118f3565b60008167ffffffffffffffff81111561195f577f4e487b7100000000000000000000000000000000000000000000000000000000600052604160045260246000fd5b6040519080825280601f01601f1916602001820160405280156119915781602001600182028036833780820191505090505b5090505b60008514611a44576001826119aa9190613409565b9150600a856119b9919061359f565b60306119c59190613328565b60f81b818381518110611a01577f4e487b7100000000000000000000000000000000000000000000000000000000600052603260045260246000fd5b60200101907effffffffffffffffffffffffffffffffffffffffffffffffffffffffffffff1916908160001a905350600a85611a3d919061337e565b9450611995565b8093505050505b919050565b600081604051602001611a639190612d1b565b6040516020818303038152906040528051906020012060001c9050919050565b8173ffffffffffffffffffffffffffffffffffffffff168373ffffffffffffffffffffffffffffffffffffffff161415611af2576040517f08c379a0000000000000000000000000000000000000000000000000000000008152600401611ae9906130df565b60405180910390fd5b80600560008573ffffffffffffffffffffffffffffffffffffffff1673ffffffffffffffffffffffffffffffffffffffff16815260200190815260200160002060008473ffffffffffffffffffffffffffffffffffffffff1673ffffffffffffffffffffffffffffffffffffffff16815260200190815260200160002060006101000a81548160ff0219169083151502179055508173ffffffffffffffffffffffffffffffffffffffff168373ffffffffffffffffffffffffffffffffffffffff167f17307eab39ab6107e8899845ad3d59bd9653f200f220920489ca2b5937696c3183604051611be39190612fe4565b60405180910390a3505050565b611bfb84848461163c565b611c0784848484612050565b611c46576040517f08c379a0000000000000000000000000000000000000000000000000000000008152600401611c3d9061305f565b60405180910390fd5b50505050565b606060405180602001604052806000815250905090565b6060611c6e82611431565b611cad576040517f08c379a0000000000000000000000000000000000000000000000000000000008152600401611ca4906131ff565b60405180910390fd5b6000611cb7611c4c565b90506000815111611cd75760405180602001604052806000815250611d02565b80611ce1846118a3565b604051602001611cf2929190612d32565b6040516020818303038152906040525b915050919050565b600081600001549050919050565b60606000825190506000811415611d415760405180602001604052806000815250915050611ed1565b60006003600283611d529190613328565b611d5c919061337e565b6004611d6891906133af565b90506000602082611d799190613328565b67ffffffffffffffff811115611db8577f4e487b7100000000000000000000000000000000000000000000000000000000600052604160045260246000fd5b6040519080825280601f01601f191660200182016040528015611dea5781602001600182028036833780820191505090505b5090506000604051806060016040528060408152602001613e70604091399050600181016020830160005b86811015611e8e5760038101905062ffffff818a015116603f8160121c168401518060081b905060ff603f83600c1c1686015116810190508060081b905060ff603f8360061c1686015116810190508060081b905060ff603f831686015116810190508060e01b90508084526004840193505050611e15565b506003860660018114611ea85760028114611eb857611ec3565b613d3d60f01b6002830352611ec3565b603d60f81b60018303525b508484525050819450505050505b919050565b611ef08282604051806020016040528060008152506121e7565b5050565b611efd82611431565b611f3c576040517f08c379a0000000000000000000000000000000000000000000000000000000008152600401611f339061317f565b60405180910390fd5b80600660008481526020019081526020016000209080519060200190611f6392919061243f565b505050565b6001816000016000828254019250508190555050565b612018838383604051602401611f9693929190613021565b6040516020818303038152906040527fe3849f79000000000000000000000000000000000000000000000000000000007bffffffffffffffffffffffffffffffffffffffffffffffffffffffff19166020820180517bffffffffffffffffffffffffffffffffffffffffffffffffffffffff838183161783525050505061201d565b505050565b60008151905060006a636f6e736f6c652e6c6f679050602083016000808483855afa5050505050565b505050565b505050565b60006120718473ffffffffffffffffffffffffffffffffffffffff16612242565b156121da578373ffffffffffffffffffffffffffffffffffffffff1663150b7a0261209a61149d565b8786866040518563ffffffff1660e01b81526004016120bc9493929190612f6f565b602060405180830381600087803b1580156120d657600080fd5b505af192505050801561210757506040513d601f19601f820116820180604052508101906121049190612783565b60015b61218a573d8060008114612137576040519150601f19603f3d011682016040523d82523d6000602084013e61213c565b606091505b50600081511415612182576040517f08c379a00000000000000000000000000000000000000000000000000000000081526004016121799061305f565b60405180910390fd5b805181602001fd5b63150b7a0260e01b7bffffffffffffffffffffffffffffffffffffffffffffffffffffffff1916817bffffffffffffffffffffffffffffffffffffffffffffffffffffffff1916149150506121df565b600190505b949350505050565b6121f18383612265565b6121fe6000848484612050565b61223d576040517f08c379a00000000000000000000000000000000000000000000000000000000081526004016122349061305f565b60405180910390fd5b505050565b6000808273ffffffffffffffffffffffffffffffffffffffff163b119050919050565b600073ffffffffffffffffffffffffffffffffffffffff168273ffffffffffffffffffffffffffffffffffffffff1614156122d5576040517f08c379a00000000000000000000000000000000000000000000000000000000081526004016122cc9061319f565b60405180910390fd5b6122de81611431565b1561231e576040517f08c379a00000000000000000000000000000000000000000000000000000000081526004016123159061309f565b60405180910390fd5b61232a60008383612046565b6001600360008473ffffffffffffffffffffffffffffffffffffffff1673ffffffffffffffffffffffffffffffffffffffff168152602001908152602001600020600082825461237a9190613328565b92505081905550816002600083815260200190815260200160002060006101000a81548173ffffffffffffffffffffffffffffffffffffffff021916908373ffffffffffffffffffffffffffffffffffffffff160217905550808273ffffffffffffffffffffffffffffffffffffffff16600073ffffffffffffffffffffffffffffffffffffffff167fddf252ad1be2c89b69c2b068fc378daa952ba7f163c4a11628f55a4df523b3ef60405160405180910390a461243b6000838361204b565b5050565b82805461244b906134f3565b90600052602060002090601f01602090048101928261246d57600085556124b4565b82601f1061248657805160ff19168380011785556124b4565b828001600101855582156124b4579182015b828111156124b3578251825591602001919060010190612498565b5b5090506124c191906124c5565b5090565b5b808211156124de5760008160009055506001016124c6565b5090565b60006124f56124f08461329f565b61327a565b90508281526020810184848401111561250d57600080fd5b6125188482856134b1565b509392505050565b60008135905061252f81613dee565b92915050565b60008135905061254481613e05565b92915050565b60008135905061255981613e1c565b92915050565b60008151905061256e81613e1c565b92915050565b600082601f83011261258557600080fd5b81356125958482602086016124e2565b91505092915050565b6000813590506125ad81613e33565b92915050565b6000602082840312156125c557600080fd5b60006125d384828501612520565b91505092915050565b600080604083850312156125ef57600080fd5b60006125fd85828601612520565b925050602061260e85828601612520565b9150509250929050565b60008060006060848603121561262d57600080fd5b600061263b86828701612520565b935050602061264c86828701612520565b925050604061265d8682870161259e565b9150509250925092565b6000806000806080858703121561267d57600080fd5b600061268b87828801612520565b945050602061269c87828801612520565b93505060406126ad8782880161259e565b925050606085013567ffffffffffffffff8111156126ca57600080fd5b6126d687828801612574565b91505092959194509250565b600080604083850312156126f557600080fd5b600061270385828601612520565b925050602061271485828601612535565b9150509250929050565b6000806040838503121561273157600080fd5b600061273f85828601612520565b92505060206127508582860161259e565b9150509250929050565b60006020828403121561276c57600080fd5b600061277a8482850161254a565b91505092915050565b60006020828403121561279557600080fd5b60006127a38482850161255f565b91505092915050565b6000602082840312156127be57600080fd5b60006127cc8482850161259e565b91505092915050565b6127de8161343d565b82525050565b6127ed8161344f565b82525050565b60006127fe826132e5565b61280881856132fb565b93506128188185602086016134c0565b6128218161368c565b840191505092915050565b6000612837826132f0565b612841818561330c565b93506128518185602086016134c0565b61285a8161368c565b840191505092915050565b6000612870826132f0565b61287a818561331d565b935061288a8185602086016134c0565b80840191505092915050565b600081546128a3816134f3565b6128ad818661331d565b945060018216600081146128c857600181146128d95761290c565b60ff1983168652818601935061290c565b6128e2856132d0565b60005b83811015612904578154818901526001820191506020810190506128e5565b838801955050505b50505092915050565b6000612922608d8361331d565b915061292d8261369d565b608d82019050919050565b600061294560258361331d565b91506129508261375e565b602582019050919050565b600061296860328361330c565b9150612973826137ad565b604082019050919050565b600061298b60258361330c565b9150612996826137fc565b604082019050919050565b60006129ae601c8361330c565b91506129b98261384b565b602082019050919050565b60006129d1600a8361331d565b91506129dc82613874565b600a82019050919050565b60006129f460248361330c565b91506129ff8261389d565b604082019050919050565b6000612a1760198361330c565b9150612a22826138ec565b602082019050919050565b6000612a3a600b8361331d565b9150612a4582613915565b600b82019050919050565b6000612a5d602c8361330c565b9150612a688261393e565b604082019050919050565b6000612a80600d8361331d565b9150612a8b8261398d565b600d82019050919050565b6000612aa360388361330c565b9150612aae826139b6565b604082019050919050565b6000612ac6602a8361330c565b9150612ad182613a05565b604082019050919050565b6000612ae9600f8361331d565b9150612af482613a54565b600f82019050919050565b6000612b0c60298361330c565b9150612b1782613a7d565b604082019050919050565b6000612b2f602e8361330c565b9150612b3a82613acc565b604082019050919050565b6000612b5260028361331d565b9150612b5d82613b1b565b600282019050919050565b6000612b75600f8361331d565b9150612b8082613b44565b600f82019050919050565b6000612b9860208361330c565b9150612ba382613b6d565b602082019050919050565b6000612bbb60318361330c565b9150612bc682613b96565b604082019050919050565b6000612bde602c8361330c565b9150612be982613be5565b604082019050919050565b6000612c01602f8361330c565b9150612c0c82613c34565b604082019050919050565b6000612c24600a8361331d565b9150612c2f82613c83565b600a82019050919050565b6000612c4760218361330c565b9150612c5282613cac565b604082019050919050565b6000612c6a600a8361331d565b9150612c7582613cfb565b600a82019050919050565b6000612c8d601d8361331d565b9150612c9882613d24565b601d82019050919050565b6000612cb060318361330c565b9150612cbb82613d4d565b604082019050919050565b6000612cd360018361331d565b9150612cde82613d9c565b600182019050919050565b6000612cf660058361331d565b9150612d0182613dc5565b600582019050919050565b612d15816134a7565b82525050565b6000612d278284612865565b915081905092915050565b6000612d3e8285612865565b9150612d4a8284612865565b91508190509392505050565b6000612d628286612865565b9150612d6e8285612865565b9150612d7a8284612865565b9150819050949350505050565b6000612d938285612865565b9150612d9e82612cc6565b9150612daa8284612865565b91508190509392505050565b6000612dc28287612896565b9150612dce8286612865565b9150612dda8285612896565b9150612de68284612865565b9150612df182612a73565b915081905095945050505050565b6000612e0a82612938565b9150612e168284612865565b915081905092915050565b6000612e2c826129c4565b9150612e388284612865565b915081905092915050565b6000612e4e82612a2d565b9150612e5a8284612865565b915081905092915050565b6000612e7082612adc565b9150612e7c8284612865565b915081905092915050565b6000612e9282612b68565b9150612e9e8284612865565b915081905092915050565b6000612eb482612c17565b9150612ec08285612865565b9150612ecb82612915565b9150612ed78284612865565b9150612ee282612b45565b91508190509392505050565b6000612ef982612c5d565b9150612f058284612865565b915081905092915050565b6000612f1b82612c80565b9150612f278284612865565b915081905092915050565b6000612f3d82612ce9565b9150612f498284612865565b915081905092915050565b6000602082019050612f6960008301846127d5565b92915050565b6000608082019050612f8460008301876127d5565b612f9160208301866127d5565b612f9e6040830185612d0c565b8181036060830152612fb081846127f3565b905095945050505050565b6000604082019050612fd060008301856127d5565b612fdd6020830184612d0c565b9392505050565b6000602082019050612ff960008301846127e4565b92915050565b60006020820190508181036000830152613019818461282c565b905092915050565b6000606082019050818103600083015261303b818661282c565b905061304a6020830185612d0c565b61305760408301846127d5565b949350505050565b600060208201905081810360008301526130788161295b565b9050919050565b600060208201905081810360008301526130988161297e565b9050919050565b600060208201905081810360008301526130b8816129a1565b9050919050565b600060208201905081810360008301526130d8816129e7565b9050919050565b600060208201905081810360008301526130f881612a0a565b9050919050565b6000602082019050818103600083015261311881612a50565b9050919050565b6000602082019050818103600083015261313881612a96565b9050919050565b6000602082019050818103600083015261315881612ab9565b9050919050565b6000602082019050818103600083015261317881612aff565b9050919050565b6000602082019050818103600083015261319881612b22565b9050919050565b600060208201905081810360008301526131b881612b8b565b9050919050565b600060208201905081810360008301526131d881612bae565b9050919050565b600060208201905081810360008301526131f881612bd1565b9050919050565b6000602082019050818103600083015261321881612bf4565b9050919050565b6000602082019050818103600083015261323881612c3a565b9050919050565b6000602082019050818103600083015261325881612ca3565b9050919050565b60006020820190506132746000830184612d0c565b92915050565b6000613284613295565b90506132908282613525565b919050565b6000604051905090565b600067ffffffffffffffff8211156132ba576132b961365d565b5b6132c38261368c565b9050602081019050919050565b60008190508160005260206000209050919050565b600081519050919050565b600081519050919050565b600082825260208201905092915050565b600082825260208201905092915050565b600081905092915050565b6000613333826134a7565b915061333e836134a7565b9250827fffffffffffffffffffffffffffffffffffffffffffffffffffffffffffffffff03821115613373576133726135d0565b5b828201905092915050565b6000613389826134a7565b9150613394836134a7565b9250826133a4576133a36135ff565b5b828204905092915050565b60006133ba826134a7565b91506133c5836134a7565b9250817fffffffffffffffffffffffffffffffffffffffffffffffffffffffffffffffff04831182151516156133fe576133fd6135d0565b5b828202905092915050565b6000613414826134a7565b915061341f836134a7565b925082821015613432576134316135d0565b5b828203905092915050565b600061344882613487565b9050919050565b60008115159050919050565b60007fffffffff0000000000000000000000000000000000000000000000000000000082169050919050565b600073ffffffffffffffffffffffffffffffffffffffff82169050919050565b6000819050919050565b82818337600083830152505050565b60005b838110156134de5780820151818401526020810190506134c3565b838111156134ed576000848401525b50505050565b6000600282049050600182168061350b57607f821691505b6020821081141561351f5761351e61362e565b5b50919050565b61352e8261368c565b810181811067ffffffffffffffff8211171561354d5761354c61365d565b5b80604052505050565b6000613561826134a7565b91507fffffffffffffffffffffffffffffffffffffffffffffffffffffffffffffffff821415613594576135936135d0565b5b600182019050919050565b60006135aa826134a7565b91506135b5836134a7565b9250826135c5576135c46135ff565b5b828206905092915050565b7f4e487b7100000000000000000000000000000000000000000000000000000000600052601160045260246000fd5b7f4e487b7100000000000000000000000000000000000000000000000000000000600052601260045260246000fd5b7f4e487b7100000000000000000000000000000000000000000000000000000000600052602260045260246000fd5b7f4e487b7100000000000000000000000000000000000000000000000000000000600052604160045260246000fd5b6000601f19601f8301169050919050565b7f222c20226465736372697074696f6e223a202252616e646f6d20636f6c6c656360008201527f74696f6e206f66203320776f726420696d616765732e20436f6c656363696f6e60208201527f20616c6561746f72696120646520696d6167656e657320636f6e20332070616c60408201527f61627261732e222c2022696d616765223a2022646174613a696d6167652f737660608201527f672b786d6c3b6261736536342c00000000000000000000000000000000000000608082015250565b7f68747470733a2f2f6e6674707265766965772e30786465762e636f6465732f3f60008201527f636f64653d000000000000000000000000000000000000000000000000000000602082015250565b7f4552433732313a207472616e7366657220746f206e6f6e20455243373231526560008201527f63656976657220696d706c656d656e7465720000000000000000000000000000602082015250565b7f4552433732313a207472616e736665722066726f6d20696e636f72726563742060008201527f6f776e6572000000000000000000000000000000000000000000000000000000602082015250565b7f4552433732313a20746f6b656e20616c7265616479206d696e74656400000000600082015250565b7f54484952445f574f524400000000000000000000000000000000000000000000600082015250565b7f4552433732313a207472616e7366657220746f20746865207a65726f2061646460008201527f7265737300000000000000000000000000000000000000000000000000000000602082015250565b7f4552433732313a20617070726f766520746f2063616c6c657200000000000000600082015250565b7f5345434f4e445f574f5244000000000000000000000000000000000000000000600082015250565b7f4552433732313a206f70657261746f7220717565727920666f72206e6f6e657860008201527f697374656e7420746f6b656e0000000000000000000000000000000000000000602082015250565b7f3c2f746578743e3c2f7376673e00000000000000000000000000000000000000600082015250565b7f4552433732313a20617070726f76652063616c6c6572206973206e6f74206f7760008201527f6e6572206e6f7220617070726f76656420666f7220616c6c0000000000000000602082015250565b7f4552433732313a2062616c616e636520717565727920666f7220746865207a6560008201527f726f206164647265737300000000000000000000000000000000000000000000602082015250565b7f544552434552415f50414c414252410000000000000000000000000000000000600082015250565b7f4552433732313a206f776e657220717565727920666f72206e6f6e657869737460008201527f656e7420746f6b656e0000000000000000000000000000000000000000000000602082015250565b7f45524337323155524953746f726167653a2055524920736574206f66206e6f6e60008201527f6578697374656e7420746f6b656e000000000000000000000000000000000000602082015250565b7f227d000000000000000000000000000000000000000000000000000000000000600082015250565b7f534547554e44415f50414c414252410000000000000000000000000000000000600082015250565b7f4552433732313a206d696e7420746f20746865207a65726f2061646472657373600082015250565b7f45524337323155524953746f726167653a2055524920717565727920666f722060008201527f6e6f6e6578697374656e7420746f6b656e000000000000000000000000000000602082015250565b7f4552433732313a20617070726f76656420717565727920666f72206e6f6e657860008201527f697374656e7420746f6b656e0000000000000000000000000000000000000000602082015250565b7f4552433732314d657461646174613a2055524920717565727920666f72206e6f60008201527f6e6578697374656e7420746f6b656e0000000000000000000000000000000000602082015250565b7f7b226e616d65223a202200000000000000000000000000000000000000000000600082015250565b7f4552433732313a20617070726f76616c20746f2063757272656e74206f776e6560008201527f7200000000000000000000000000000000000000000000000000000000000000602082015250565b7f46495253545f574f524400000000000000000000000000000000000000000000600082015250565b7f646174613a6170706c69636174696f6e2f6a736f6e3b6261736536342c000000600082015250565b7f4552433732313a207472616e736665722063616c6c6572206973206e6f74206f60008201527f776e6572206e6f7220617070726f766564000000000000000000000000000000602082015250565b7f5f00000000000000000000000000000000000000000000000000000000000000600082015250565b7f434f4c4f52000000000000000000000000000000000000000000000000000000600082015250565b613df78161343d565b8114613e0257600080fd5b50565b613e0e8161344f565b8114613e1957600080fd5b50565b613e258161345b565b8114613e3057600080fd5b50565b613e3c816134a7565b8114613e4757600080fd5b5056fe416e204e465420772f20494420257320686173206265656e206d696e74656420746f2025734142434445464748494a4b4c4d4e4f505152535455565758595a6162636465666768696a6b6c6d6e6f707172737475767778797a303132333435363738392b2fa264697066735822122032dad82982a2a38e3f357fc5f35e36240d73ba5e52ead9849e6bcdf995c2dca164736f6c634300080100333c73766720786d6c6e733d27687474703a2f2f7777772e77332e6f72672f323030302f73766727207072657365727665417370656374526174696f3d27784d696e594d696e206d656574272076696577426f783d273020302033353020333530273e3c7374796c653e2e62617365207b2066696c6c3a2077686974653b20666f6e742d66616d696c793a2073657269663b20666f6e742d73697a653a20323470783b207d3c2f7374796c653e3c726563742077696474683d273130302527206865696768743d2731303025272066696c6c3d2727202f3e3c7465787420783d273530252720793d273530252720636c6173733d27626173652720646f6d696e616e742d626173656c696e653d276d6964646c652720746578742d616e63686f723d276d6964646c65273e",
    "linkReferences": {},
    "deployedLinkReferences": {}
}